:1020000068600020C93E0000C53E0000C53E0000DB
:1020100000000000000000000000000000000000C0
:10202000000000000000000000000000C53E0000AD
:102030000000000000000000F12200003523000035
:10204000C53E0000C53E0000C53E0000C53E000084
:10205000C53E0000C53E0000C53E0000C53E000074
:10206000C53E0000C53E0000C53E0000C53E000064
:10207000C53E0000C53E0000C53E0000C53E000054
:10208000C53E0000C53E0000C53E0000C53E000044
:10209000C53E00000000000000000000C53E00003A
:1020A000C53E0000C53E0000C53E0000C53E000024
:1020B0000000000010B5064C2378002B07D1054B1B
:1020C000002B02D0044800E000BF0123237010BDA4
:1020D0000800002000000000E4410000084B10B59B
:1020E000002B03D00749084800E000BF07480368F9
:1020F000002B00D110BD064B002BFBD09847F9E711
:10210000000000000C000020E4410000E441000059
:102110000000000003000833436001225242826045
:10212000C3600361002303607047002303617047AD
:1021300043684B609A688A609A6851609960086148
:10214000036801330360704730B50C680200083241
:10215000631C02D1026904E01A0053681D68AC4296
:10216000FAD253684B6099608A60516008610368D5
:102170000133036030BD0369426881689160826801
:10218000416851605A68904206D0002202611A6884
:10219000013A1A601868704782685A60F5E70000D3
:1021A00082B000230193064B1B68013301D072B645
:1021B000FEE772B6019B002BFCD002B07047C04610
:1021C00000000020000000000000000000000000EF
:1021D0000B4A13681868203080F30988022080F3C6
:1021E0001488BFF36F8F3FBCAE4608BC04BC62B618
:1021F0001847C046C046C046C046C046C046C04656
:10220000BC3E002010B5031F802464041C60043B06
:102210001960043B02491960143B1A60403810BD34
:10222000A121000010B50F4B1968FF2212040A43C8
:102230001A601968FF2212060A431A600A4A00232C
:1022400013600A490B600A480A49086007211160B7
:10225000094A1360094B9847094B9847094B98471F
:10226000002010BD20ED00E010E000E018E000E0EC
:102270003F1F000014E000E000000020D12100001A
:1022800089320000A121000080225205034B1A6010
:10229000BFF34F8FBFF36F8F7047C04604ED00E070
:1022A00072B6044A136801331360BFF34F8FBFF354
:1022B0006F8F704700000020064B1B68002B01D178
:1022C00072B6FEE7013B034A1360002B00D162B6F1
:1022D0007047C04600000020EFF3108072B67047D0
:1022E00080F310887047000000000000000000002C
:1022F000EFF309800E4B1A6820381060F0C0444696
:102300004D4656465F46F0C008B572B600F0BCFFB9
:1023100062B60CBC116808681030F0C8A046A94627
:10232000B246BB4680F309882038F0C81847C0463B
:10233000BC3E002010B5074B98470400064B984759
:10234000002803D080225205044B1A602000044B61
:10235000984710BDD92200001130000004ED00E0C4
:10236000E122000010B5124B1A68824219D35C6852
:102370001919884203D14168091959601800416848
:102380004418A24211D10B4C2468A2420BD05268CF
:10239000521842601A6812680260984200D01860B1
:1023A00010BD1300E0E70260F7E70260F5E7C04602
:1023B000B43E002024000020F8B504003F4B9847AD
:1023C0003F4B1B68002B15D03E4B1F683C426AD127
:1023D000002C6BD0230008335A0702D00722934306
:1023E0000833002B5FD0384A1668B3425BD8374AAF
:1023F000146827E0364A53071FD0D11D072399439D
:10240000FA239B01D3185B1A0A00304802600021AE
:102410004160D318083B0720834329480360596073
:102420001960991A516013602A4B1960264B196084
:1024300080221206234B1A60C6E7FA239B01E4E7C9
:1024400022000C0061688B4202D921680029F7D173
:102450001B4909688C4226D01568216811606268A2
:10246000D21A102A08D9E018410701D072B6FEE747
:1024700042606360184B98476268B61A12490E6052
:10248000144909688E4201D212490E60083517437B
:10249000676000232360114B9847002D08D06B071D
:1024A00009D072B6FEE70D4B984701E00B4B9847F9
:1024B0000B4B984700252800F8BDC046E92F0000C7
:1024C00024000020A83E0020AC3E0020B43E0020A6
:1024D00028000020B03E00206523000049310000A4
:1024E000993A000010B5002820D00300083B5B6833
:1024F0000F4A12681A4201D172B6FEE7010008398C
:102500000968002901D072B6FEE708380400934339
:102510004360084B9847084A636811688C466344D7
:1025200013602000054B9847054B984710BDC046E7
:10253000A83E0020E92F0000AC3E002065230000EB
:102540004931000010B50400034B9847A46B034BBE
:1025500098476042604110BDA1220000B9220000EE
:1025600070B504001600856B026C002A0BD10020A8
:102570002368834204D1A068164B98470023A360C8
:102580000135A56370BD002E0ED14068124B9847EF
:102590006368226C9446634463600020A26893429F
:1025A000EED323686360EBE7C0680B4B9847236C5E
:1025B0005B42E268D218E26021688A4203D2A268D4
:1025C00094466344E3600020022ED9D18542D7D0DF
:1025D000013DD5E7213500000D41000070B582B006
:1025E00001900A00846C002C05D0A16BE36B99422A
:1025F00003D372B6FEE772B6FEE7A16B00268B42EC
:1026000002D8300002B070BD4523E55C6DB201A96F
:1026100020000A4B984706006B1C0AD1636A002B06
:10262000EFD020002430064B98470028E9D001263F
:10263000E7E701356DB24523E554E2E76125000087
:10264000E533000010B50C00026C002A0BD0C36803
:102650009B18C36081688B4201D30368C360C16863
:102660002000014B984710BD0D410000F8B5070050
:10267000254B98474523FC5C64B2002C1CDD234E9F
:10268000234D0BE07B6A002B16D038002430A8477E
:1026900000280ED1013C64B2002C0DD0BB6C002B85
:1026A000F0D000213800B0470028F3D0194B9847EC
:1026B000F0E7184B9847EDE7FF224523FA54164BF5
:1026C0009847114B98474423FC5C64B2002C14DDFE
:1026D0003B69002B11D03D0010350D4E06E0013C4A
:1026E00064B2002C09D03B69002B06D02800B0470B
:1026F0000028F4D0074B9847F1E7FF224423FA540F
:10270000054B9847F8BDC046A1220000DD2500001A
:10271000E5330000F5340000B922000070B5040074
:102720000D00002821D0174B98472268216CE36BDD
:102730004B43D018A0600020A06362605B1AD318DE
:10274000E360FF234422A3540132A354002D11D18E
:102750002369002B05D0200010300B4B9847002830
:1027600005D10A4B9847012070BD72B6FEE7084BB1
:102770009847F6E720001030064DA8472000243087
:10278000A847EEE7A1220000E5330000B9220000CF
:102790008922000015210000F8B506000D00170081
:1027A000002801D172B6FEE70800704354300B4B8D
:1027B0009847041E10D0002D03D00300543303604B
:1027C00000E02060E663256401212000044B984767
:1027D0005023E7540023A3642000F8BDB923000070
:1027E0001D270000F0B5CE46474680B585B00400F1
:1027F0000E0001921D0000280CD000290CD0022DE3
:102800000FD0564B9847002810D1019B002B11D0B8
:1028100072B6FEE772B6FEE7036C002BEFD072B61D
:10282000FEE7E36B012BECD072B6FEE700274C4BC2
:10283000984646E00027FAE7A76B2A0031002000FF
:10284000484B9847A36C002B00D17AE0022D01D1B0
:10285000002F07D129002000434B9847002801D0C2
:10286000424B9847424B9847012005B00CBC90461C
:102870009946F0BD0028F5D03C4B9847F2E73C4B19
:1028800098470020F1E73A4B984701A902A8394B35
:102890009847002844D1324B9847A36B9946E76B81
:1028A000334B9847B94535D1200010300199324B50
:1028B00098472000314B9847314B9847002826D045
:1028C0000127C047A36BE26B9342B5D3022D2ED0F4
:1028D000019B002BD3D0002F02D102A8294B98478F
:1028E000234B9847284B98471D4B98474423E35C5C
:1028F0005BB2013302D100224423E2544523E35C5E
:102900005BB20133BFD100224523E254BBE7174B32
:102910009847D5E72000194B9847194B9847CFE7C0
:102920002000164B9847164B984700209DE7A76B51
:102930000222310020000B4B9847A36C002B00D0E3
:1029400086E7636A002B95D0200024300F4B984710
:10295000002800D186E7054B984783E70135000042
:10296000A122000061250000DD2500008922000071
:10297000B922000085340000813300006D2600007C
:10298000493100006D340000E92F0000E5330000FC
:10299000F0B583B00400019116001D00002812D08C
:1029A000019B002B11D0022D14D0284B984700908A
:1029B000A36BE26B9A422FD800250098244B9847CE
:1029C000280003B0F0BD72B6FEE7036C002BEAD01E
:1029D00072B6FEE7E36B012B1AD072B6FEE7636AAC
:1029E0000125002BE9D0200024301A4B98470028FD
:1029F000E3D0002E0AD001233360DEE77B1C5BB2FC
:102A00004522A3540125D8E70125D6E70125D4E7BF
:102A10000E4B98470090A36B4523E75C7FB22A00DA
:102A2000019920000C4B98477B1CE7D1A36C002B2D
:102A3000D5D029002000094B984701250028BCD09B
:102A4000002EE1D001233360B7E7C046D922000051
:102A5000E1220000E533000061250000DD250000D3
:102A6000F0B5C64600B584B004000F0001920028FE
:102A70000AD000290AD0424B984700280BD1019B6D
:102A8000002B0CD072B6FEE772B6FEE7036C002B8B
:102A9000F1D072B6FEE700263A4B98462FE00026AA
:102AA000FAE739002000384B9847013DA5632369B8
:102AB000002B07D020001030344B9847002801D05D
:102AC000334B9847334B9847012004B004BC9046E1
:102AD000F0BD304B98470020F7E702A82E4B9847EF
:102AE00016E000224423E2541DE000224523E25474
:102AF0001EE02000294B9847294B98470126C047E4
:102B0000A56B002DCDD1019B002BE2D0002EE4D08F
:102B1000204B9847234B98471A4B98474423E35C34
:102B20005BB20133DDD04523E35C5BB20133DCD023
:102B3000184B984701A902A81B4B9847002813D1AE
:102B400020001A4B98470028D3D020002430019948
:102B5000174B98472000114B9847114B9847002876
:102B6000CCD10B4B9847C9E720000C4B98470C4B36
:102B7000984720000D4B98470028BFD00020A4E7BD
:102B800001350000A122000045260000E5330000C9
:102B900089220000B92200006D3400006D2600007B
:102BA00049310000E92F0000853400004525000070
:102BB0008133000010B50A4B1B68002B09D001239C
:102BC000074CDA00A258002A04D00133082BF8D1B0
:102BD00010BD0023024ADB009950D3185860F7E774
:102BE0002440002070B504000D001600114B9847DA
:102BF0004423E35C5BB201330DD04523E35C5BB25D
:102C000001330CD00C4B9847A36B002B0BD020004A
:102C10000A4B984770BD00224423E254EDE700229E
:102C20004523E254EEE72000243032002900044B13
:102C30009847ECE7A1220000B92200006D260000B1
:102C4000AD330000084B1B681B68002B07D0064BF8
:102C50001B68DB68DB685A68044B1A607047012206
:102C60005242024B1A60F9E7C03E0020743F002038
:102C7000F0B5D6464F464646C0B5144B9946144B60
:102C80009846144F144B9A464B461B68002B16D09F
:102C9000C047FB68DD68281DD047104A1368013B18
:102CA00013600A4C2368013B23600D4B9847286B47
:102CB0000C4EB0472800B0472368002BE8D10A4BE0
:102CC0001B68012BE0D9094B9847DDE7343F002012
:102CD000A1220000A83F002077210000303F002003
:102CE000B9220000E5240000C83E0020892200002F
:102CF00070B504000D00174B1E68174B18680430A0
:102D0000164B9847631C13D03419134B1B685C6037
:102D1000A64216D8124B18680F4B19680431114B94
:102D20009847114B1B689C4212D20F4B1C600FE05E
:102D3000002DE9D0084B196804310C480C4B98471A
:102D400006E00C4B1868044B19680431054B984792
:102D500070BDC046BC3F0020BC3E00207721000073
:102D6000C03E002049210000743F0020943F002015
:102D700031210000C43E0020F0B5C64600B584B045
:102D800001900D00029397003800624B9847061E91
:102D900000D18CE058205F4B9847041E00D183E09F
:102DA00006633A00A52130005B4B98473A1F236B1E
:102DB0009C46624407239A439046002D00D179E057
:102DC0002A783423E2542B78002B0CD06B1C220081
:102DD00035320535197811701978002903D001337F
:102DE0000132AB42F6D100223823E2540A9F042F6D
:102DF00000D90427E76267640026A664231D0393B5
:102E00001800464DA84720001830A8472461052324
:102E1000DB1BA3616462E66426655423E654029AD0
:102E2000019940463E4B984720600B9B002B00D0F9
:102E30001C603C4B98473C4A1368013313603B4B82
:102E40001B68002B3AD03A4B1B68002B07D1374B3D
:102E50001B68DB6AE26A934201D8344B1C60354A36
:102E6000136801331360E363E36A334A12689342E1
:102E700001D9314A13609800C01880002F4B1818F0
:102E800003992F4B98472F4B9847294B1B680120DC
:102E9000002B05D0254B1B68DA6AE36A9A4235D3CA
:102EA00004B004BC9046F0BD3000274B9847012089
:102EB0004042F5E700223423E25497E71B4B1C60A5
:102EC0001368012BCBD11D4F3800204EB04738007E
:102ED0001430B04738002830B04738003C30B04795
:102EE00038005030B0471A4B98461800B047194F79
:102EF0003800B0471848B0471848B0471848B0479E
:102F0000184B42461A60184B1F60A8E7174B9847AA
:102F10000120C5E7B92300001F4100002B2100005C
:102F200005220000A1220000303F0020BC3E00200E
:102F3000903F0020403F0020443F0020C83E00203A
:102F400031210000B9220000E52400001521000015
:102F5000483F00205C3F00207C3F0020A83F00202D
:102F6000943F0020C03E0020C43E00208922000083
:102F700010B582B0124B01930023009346221149F1
:102F80001148124CA047012803D0431C15D002B0B1
:102F900010BD0F4B98470128F7D172B6012252425B
:102FA0000C4B1A6002320C4B1A6000220B4B1A6059
:102FB0000B4B98470B4B9847E9E772B6FEE7C046C4
:102FC000703F002030410000712C0000792D00007E
:102FD00055360000743F0020903F0020BC3F002089
:102FE000A53A000025220000024A1368013313604D
:102FF0007047C0463C3F0020014B18687047C046F0
:10300000BC3F0020014B18687047C046BC3F002001
:10301000F0B583B03D4B1B68002B00D06DE03C4BFE
:103020001D6801351D60002D12D13A4B1B681B68CD
:10303000002B01D072B6FEE7364A1168364B18688D
:1030400010601960354A136801331360344B984798
:10305000344B1B6800249D4233D300242D4F3B6822
:103060001B68002B29D02B4B1B68DB68DE6873685C
:103070009D423FD3331D019318002B4B9847B36AF1
:10308000002B03D030001830274B9847F36A274AAB
:103090001268934201D9254A13609800C018800035
:1030A000234B18180199234B9847234B1B68F26A4E
:1030B000DB6A9A42D3D30124D1E701225242194B51
:1030C0001A601D4B1B68DA6A93009B189B00184A14
:1030D0009B58012B00D90124184B1B68002B01D1F0
:1030E000174B9847174B1B68002B00D0012420007A
:1030F00003B0F0BD0B4A1360E3E7104A13680133D5
:1031000013600F4B98470024ECE7C0463C3F00207B
:10311000BC3F0020C03E0020C43E0020783F00207D
:10312000452C0000743F002077210000443F002020
:10313000C83E002031210000BC3E0020383F002066
:10314000A13A0000C03F0020F8B5304B1B68002BAF
:1031500001D172B6FEE72E4B98472C4B1A68013A04
:103160001A601B680024002B03D12A4B1B68002B1C
:1031700003D1294B98472000F8BD284D2F002B681C
:10318000002B22D0FB68DC6820001830244B9847C5
:10319000261D3000224B9847E36A224A1268934268
:1031A00001D9204A13609800C01880001E4B1818DF
:1031B00031001E4B98471E4B1B68DB6AE26A9A423D
:1031C000DDD301221B4B1A60D9E7002C01D01A4B2A
:1031D00098471A4B1C68002C0ED0194F154E01252C
:1031E00002E0013C002C04D0B8470028F9D035603B
:1031F000F7E70022114B1A600E4B1B680024002BCE
:10320000B7D0104B98470134B3E7C0463C3F00208D
:10321000A1220000303F0020B92200007C3F0020A6
:1032200077210000443F0020C83E002031210000EB
:10323000BC3E0020C03F0020452C0000383F00204D
:10324000113000008922000010B5041E0FD0094B78
:103250001B68002B01D072B6FEE7074B9847002190
:103260002000064B9847064B9847002801D1054B94
:10327000984710BD3C3F0020E92F0000F12C0000D2
:10328000493100008922000010B5344B1B68002B27
:1032900003D00122324B1A6010BD0022304B1A605D
:1032A000304B9847304B1B68984205D92F4A12681B
:1032B000D16CCB1A1B18D3642B4B18602B4B1B689B
:1032C0001B6B2B4A1968914202D1596891421BD05D
:1032D000264B186819683431264B9847264B1B68D3
:1032E0009A00D218920025495258002A13D1002B77
:1032F00008D0013B9A00D21892005258002A0AD1F5
:10330000002BF6D172B6FEE799689142E0D1DB68F6
:103310009342DDD1E2E719489A00D118890041189B
:103320004C6864684C60D21892000832821894424B
:103330000BD09A00D218920010498A185268D168AE
:103340000A4A11600C4A1360A6E760689A00D21816
:1033500092000A498A185060EBE7C0463C3F0020C3
:10336000C03F0020B53A00002C3F0020BC3E0020AA
:10337000A5A5A5A59D3A0000443F0020C83E002019
:1033800010B50C00002801D172B6FEE7044B196895
:103390001831044B984701212000034B984710BD7A
:1033A000BC3E002049210000F12C000070B50C004B
:1033B000150000280DD0084B19681831074B9847A5
:1033C000002D01D00124644229002000044B9847BD
:1033D00070BD72B6FEE7C046BC3E00203121000041
:1033E000F12C000070B5C368DC68002C27D02500E4
:1033F00018352800154B9847154B1B68002B20D11A
:10340000251D2800114B9847E36A124A126893421F
:1034100001D9104A13609800C01880000E4B18188C
:1034200029000E4B98470E4B1B68E26ADB6A0020AE
:103430009A4203D901220B4B1A60013070BD72B65B
:10344000FEE729000848054B9847ECE77721000084
:103450003C3F0020443F0020C83E002031210000B6
:10346000BC3E0020C03F00207C3F0020034B1B6877
:103470000360034B1B6843607047C046783F0020E1
:10348000BC3F002070B506000D0000281BD00029AD
:103490001BD0134B9847134B1A6871682B68581C44
:1034A0001CD0114800683468844202D001248A424A
:1034B00005D2521A9A420AD300232B6001240B4BE7
:1034C0009847200070BD72B6FEE772B6FEE79B1A01
:1034D0002B603000064B98470024F0E70024EEE70D
:1034E000A1220000BC3F0020783F0020B92200004C
:1034F0006D3400000122014B1A607047C03F00206C
:10350000054B1B680120002B04D0044B1868434274
:10351000584140007047C046903F00203C3F00208B
:1035200070B5041E2CD0184B1B68984201D072B69F
:10353000FEE7836C002B01D172B6FEE7013B83648A
:10354000C26A416C8A421DD00020002B17D1251D74
:1035500028000E4B9847636CE3620522D21AA261E1
:103560000B4A1268934201D9094A13609A00D31892
:103570009B000848C0182900074B9847012070BDE0
:103580000020FCE70020FAE7BC3E00207721000085
:10359000443F0020C83E00203121000010B54160AA
:1035A000006191420BD8D21A012483699A4211D248
:1035B000011D094B1868094B984700240AE09A42FC
:1035C00002D20124994205D2011D054B1868034B14
:1035D00098470024200010BDC83F0020492100006A
:1035E000C43F002070B5104B9847104B1B68002B50
:1035F00002D00F4B984770BD0E4D28000E4EB047BD
:103600000E4C2000B0470E4B1D600E4B1C6000227C
:103610000C2105200C4B9847044B18600028E8D07B
:103620000A490B4B9847E4E7A1220000F83F00202D
:10363000B9220000CC3F002015210000E03F00200F
:10364000C43F0020C83F00209927000060410000CF
:10365000B52B000010B582B00A4B98470A4B1B6887
:10366000002B0DD0094B019302230093002350221D
:1036700007490848084CA047002801D002B010BDF7
:1036800072B6FEE7E5350000F83F0020FC3F002061
:1036900068410000C9370000792D000030B585B0C1
:1036A00004001D00002814D0134B1868002821D0F6
:1036B000019102920394052915DC104B98470228CA
:1036C00009D00D4B18680023002201A90C4CA0471B
:1036D0000EE072B6FEE7084B18680023089A01A9AD
:1036E000074CA04704E000232A0001A9054CA0478D
:1036F00005B030BD0020FBE7F83F00200135000099
:10370000E527000091290000F0B5DE4657464E46F9
:103710004546E0B583B08146244B98478046244B0C
:103720001B68984218D300234A461360204B424638
:103730001A60404603B03CBC90469946A246AB4650
:10374000F0BD00230093524600212000194CA047F1
:10375000002804D172B6FEE7174D184B9B46282669
:103760002B681A68002A18D0DB681A689246DC6851
:10377000271D3800D8472000236A9847A35D5B07C0
:10378000EED5A36953449A45DBD2636024610A4BAA
:10379000186839000A4B9847E1E70A4A0649106859
:1037A0000860136001234A461360BFE7F92F000049
:1037B000F43F00209D360000C43F00207721000028
:1037C00049210000C83F0020F0B589B0614F624B2D
:1037D0001B681A68002A21D0DB681C685F4B984779
:1037E00005A85F4B98470500059E002E62D1A042B8
:1037F00023D35C4B9847584B1B68DB68DE68301D51
:10380000544B98472823F35C5A073CD40122934336
:103810002732B354336A3000984718E04F4B98472B
:1038200005A84F4B98470500059B002B42D14E4BF6
:103830001B681A68564256410024611B4B4B18689E
:1038400032004B4B9847474B984700282FD0474DA5
:10385000484C002205A92868A0470028B7D0059B3E
:103860000393002BF5DB079E7369002B01D0301DFD
:10387000B84704A83A4B9847059B092BE9D89B0009
:103880003D4AD3589F46B369E11823002A0030000F
:103890003A4DA8470028BDD0002300932200002104
:1038A0003000374CA0470028B4D172B6FEE7354B44
:1038B0009847CCE72B4B9847C9E72822B35C0121F6
:1038C0000B43B354069BB269944663441900069BAC
:1038D00002003000294CA0470028B9D03000336ADC
:1038E00098472823F35C5B07B2D5069BB1698C46E9
:1038F00063441A000023009300213000204CA047AD
:103900000028A5D172B6FEE72822B35C01218B43C3
:10391000B3549DE72822B35C01210B43B3540699AD
:10392000B161002906D04118030002003000134C99
:10393000A0478DE772B6FEE72823F35C9A0704D50B
:10394000012293432732B35482E730000E4B98474D
:103950007EE7C04677210000C43F0020E92F000029
:103960000937000049310000C83F0020F83F00201F
:10397000E52B0000612A0000384100009D35000061
:103980009D36000089220000E5240000F8B5FA27E2
:10399000BF00054E054D3800B0478024A402AC613D
:1039A0003800B0476C61F6E749320000004400413E
:1039B000F8B5FA27FF00054E054D3800B0478024C2
:1039C0002406AC613800B0476C61F6E7493200006C
:1039D00000440041F8B5064F064E074D3800B04789
:1039E00080242405AC613800B0476C61F6E7C0461E
:1039F000B80B0000493200000044004170B582B0AD
:103A00001B4B98471B4B802292029A605122995C73
:103A100002200143C9B29954802212069A605F22A3
:103A2000995C0143C9B29954802212059A605B21C6
:103A30005A5C0243D2B25A540026019601250095E1
:103A4000002346220C490D480D4CA04701960095D5
:103A5000002346220B490C48A047019600950023FD
:103A600046220A490A48A0470A4B9847FEE7C04643
:103A7000993E000000440041704100008D39000073
:103A8000792D000080410000B13900009041000014
:103A9000D5390000712F000072B6FEE772B6FEE75E
:103AA00070470000C8229200014B1A607047C04660
:103AB0000040002070B50E4B1C680E4B9847050067
:103AC0000D4B98470D4B1B685B010DD50135084B1D
:103AD0001B680B48C01AAC0064196400094B1968D4
:103AE000094B9847001970BD0548001BF3E7C04615
:103AF00018E000E005300000D922000004ED00E0ED
:103B00003F1F000000400020AD3F00007047000054
:103B10000C4B1B68002B06D1EFF31083002B07D052
:103B20000022094B1A70074A13680133136070476B
:103B300072B6BFF35F8F0022044B1A700132024B42
:103B40001A70F0E704400020084000200400002024
:103B5000084B1A68013A1A601B68002B09D1064B02
:103B60001B78002B05D00122044B1A70BFF35F8F26
:103B700062B6704704400020084000200400002086
:103B800070B50C490B6A04788578407801221040A2
:103B900080014026B34303432A40D201802083435F
:103BA00013430322224012020348034013430B62D3
:103BB00070BDC04600080040FFFCFFFF082803D886
:103BC0008000254B1B589F46172044E0234A136A68
:103BD00002210B43136200203DE0204A9369022139
:103BE0000B439361002036E01C4A138A02210B43E9
:103BF000138200202FE0194A938A02210B439382FB
:103C0000002028E016490B68022213430B60134B77
:103C10009A8419000E32CB681A42FCD0104A91687F
:103C20000E4BD96252689A6200229A8419001032AF
:103C3000CB681A42FCD00A4B1B689BB2074A93849C
:103C4000002008E0054944228B5C022003438B548A
:103C5000002000E000207047A04100000008004064
:103C60000C40002030B585B0C222D2001A4B9A60B9
:103C70001A4A53681E218B43536001236A4613700E
:103C80000024174DE0B26946A8470134252CF9D12C
:103C900003A800244470012585700470114B9847D7
:103CA0000620114B9847114B9847114B1C725C72C0
:103CB0009C72DC7201956B465C7006236A46137039
:103CC00014725472694600200A4B984700200A4B30
:103CD000984705B030BDC046000800400040004194
:103CE000793E0000813B0000BD3B0000FD3C000030
:103CF00000040040213D0000D93D0000064A9369C0
:103D000008210B4393610122044B1A7019000B78B0
:103D10001342FCD17047C04600040040000C004034
:103D200070B5060004000D782D0205434B78002B7A
:103D300002D08023DB021D434B7A002B02D080236C
:103D40001B031D434868012810D9431E184234D173
:103D5000022830D90223002201325B009842FBD8AE
:103D600012023243140080235B031D430B7A002BA5
:103D700002D080239B031D43134A53785BB2002B70
:103D8000FBDB124B9847124B1E700F4A53785BB205
:103D9000002BFBDB0C4B9C601A0053785BB2002BB2
:103DA000FBDB094A5368802149020B401D435560E3
:103DB000084B984770BD0022D2E7040234438023A9
:103DC0009B021D43D2E7C046000C0040113B00009F
:103DD000080C0040513B000010B504000B4A53781A
:103DE0005BB2002BFBDB0A4B98470A4B1C70074A5F
:103DF00053785BB2002BFBDB044A516880235B02E3
:103E00000B435360044B984710BDC046000C004064
:103E1000113B0000040C0040513B000010B50400B1
:103E20000F4B98470F4B1C700F4A53881B05180FF8
:103E300053880E490B40538053880D490B405380E3
:103E400011008022D2014B881342FCD106494A88D6
:103E500003020648024013434B80064B984710BDAF
:103E6000113B0000020C0040000C0040FFF0FFFF7F
:103E7000FFBFFFFF513B000010B50C782402044344
:103E8000024B9847A4B2024B5C8010BD1D3E00005F
:103E9000000C00407047000010B5054B9847054BDB
:103EA0009847054B9847054B9847054B984710BDD9
:103EB000653C00000D3B0000953E0000953E000073
:103EC000953E0000FEE70000F8B52A4A2A4B9A42C8
:103ED00011D01A00294B9A420DD2294A03339B1A5A
:103EE0009B0801339B000022234822498C588450B0
:103EF00004329A42FAD1234A234B9A420AD2D3433C
:103F000021495B1803218B4304339B18002102C213
:103F10009342FCD11D4AFF211D4B8B439360FD3919
:103F200090235B001B4AD1501B4AD3780325AB4337
:103F300002242343D370D3780C27BB430826334392
:103F4000D370164B987B30229043202210439873F5
:103F5000997BB943314399739A7BAA4322439A735D
:103F60000F4A536880210B4353600E4B98470E4B0A
:103F70009847FEE7E4410000000000200800002010
:103F800004000020080000206440002000ED00E054
:103F90000020000000700041005000410048004136
:103FA00000400041C5400000FD39000000224308E8
:103FB0008B4274D303098B425FD3030A8B4244D3F1
:103FC000030B8B4228D3030C8B420DD3FF22090233
:103FD00012BA030C8B4202D31212090265D0030BF2
:103FE0008B4219D300E0090AC30B8B4201D3CB03E8
:103FF000C01A5241830B8B4201D38B03C01A52412A
:10400000430B8B4201D34B03C01A5241030B8B422B
:1040100001D30B03C01A5241C30A8B4201D3CB0216
:10402000C01A5241830A8B4201D38B02C01A5241FB
:10403000430A8B4201D34B02C01A5241030A8B42FE
:1040400001D30B02C01A5241CDD2C3098B4201D316
:10405000CB01C01A524183098B4201D38B01C01A94
:10406000524143098B4201D34B01C01A524103090B
:104070008B4201D30B01C01A5241C3088B4201D3BA
:10408000CB00C01A524183088B4201D38B00C01A67
:10409000524143088B4201D34B00C01A5241411A8E
:1040A00000D20146524110467047FFE701B500209B
:1040B00000F006F802BDC0460029F7D076E7704749
:1040C0007047C04670B500260C4D0D4C641BA41003
:1040D000A64209D1002600F075F80A4D0A4C641B6F
:1040E000A410A64205D170BDB300EB589847013625
:1040F000EEE7B300EB5898470136F2E7D0410000F5
:10410000D0410000D0410000D4410000002310B590
:104110009A4200D110BDCC5CC4540133F8E70300CF
:104120008218934200D1704719700133F9E70000FB
:1041300049444C4500000000BA380000BA3800007D
:10414000BA3800000839000014390000383900007E
:10415000BA380000BA3800000839000014390000ED
:10416000546D725100000000546D7220537663004C
:104170007461736B5F626C696E6B5F6C6564000089
:104180007461736B5F626C696E6B5F7278000000C4
:104190007461736B5F626C696E6B5F7478000000B2
:1041A000E83B0000C83B0000C83B0000543C000056
:1041B000DA3B0000F63B0000CC3B0000043C000072
:1041C000443C0000F8B5C046F8BC08BC9E467047A9
:1041D000DD200000F8B5C046F8BC08BC9E4670471C
:0441E000B520000006
:0841E400AAAAAAAA010000002A
:0400000300003EC9F2
:00000001FF
